:100000000C9461000C9473000C9473000C947300B6
:100010000C9473000C9473000C9473000C94730094
:100020000C9473000C9473000C9473000C94730084
:100030000C9473000C9473000C9473000C94730074
:100040000C940E020C9473000C9473000C947300C7
:100050000C9473000C9473000C9473000C94730054
:100060000C9473000C94730000000000240027001F
:100070002A0000000000250028002B0000000000DE
:1000800023002600290004040404040404040202DA
:100090000202020203030303030301020408102007
:1000A0004080010204081020010204081020000012
:1000B0000008000201000003040700000000000027
:1000C000000011241FBECFEFD8E0DEBFCDBF21E07E
:1000D000A0E0B1E001C01D92AA30B207E1F70E9492
:1000E00069020C9476020C94000008958330B1F0FC
:1000F00060F08730E9F0883009F1843021F5E0E8DC
:10010000F0E080818F7D80830895813069F08230B6
:1001100021F484B58F7D84BD08950895E0E8F0E072
:1001200080818F778083089584B58F7784BD08950B
:10013000E0EBF0E080818F7780830895E0EBF0E0E2
:1001400080818F7D80830895CF93DF93282F30E0C7
:10015000F901E255FF4F8491F901E656FF4FD49122
:10016000F901EA57FF4FC491CC23B1F081110EC0C1
:10017000EC2FF0E0EE0FFF1FE458FF4FA591B49174
:10018000EC91ED2331F490E080E008C00E9476000D
:10019000EFCF81E090E002C090E080E0DF91CF916E
:1001A00008951F93CF93DF93282F30E0F901E25594
:1001B000FF4F8491F901E656FF4F1491F901EA5778
:1001C000FF4FC491CC23A9F0D62F811116C0EC2F7C
:1001D000F0E0EE0FFF1FEE58FF4FA591B4918FB7DF
:1001E000F894D1110DC09C91E12FE095E923EC9397
:1001F0008FBFDF91CF911F9108950E947600E7CFC6
:10020000EC91E12BEC93F4CFCF93DF9390E0FC01E2
:10021000E656FF4F24918A579F4FFC018491882313
:1002200019F190E0880F991FFC01E859FF4FA59143
:10023000B491FC01EE58FF4FC591D491662349F06B
:100240006230A9F08FB7F894EC91E22BEC938FBF5A
:100250000BC09FB7F8948C91E22FE0958E238C937E
:100260008881E823E8839FBFDF91CF9108959FB7EE
:10027000F8943C91822F809583238C93E881E22B24
:10028000E8839FBFF1CF789484B5826084BD84B544
:10029000816084BD85B5826085BD85B5816085BD81
:1002A000EEE6F0E0808181608083E1E8F0E010829A
:1002B000808182608083808181608083E0E8F0E0DB
:1002C000808181608083E1EBF0E0808184608083C5
:1002D000E0EBF0E0808181608083EAE7F0E08081FC
:1002E000846080838081826080838081816080835C
:1002F0008081806880831092C10008953FB7F89490
:100300008091060190910701A0910801B091090127
:1003100026B5A89B05C02F3F19F00196A11DB11D60
:100320003FBFBA2FA92F982F8827BC01CD01620F9C
:10033000711D811D911D660F771F881F991F660F04
:10034000771F881F991F08958F929F92AF92BF9237
:10035000CF92DF92EF92FF926B017C010E947E01AF
:100360004B015C011BC021E0C21AD108E108F10871
:1003700088EE880E83E0981EA11CB11CC114D10424
:10038000E104F10459F00E947E01681979098A0993
:100390009B09683E73408105910528F7C114D1047B
:1003A000E104F10459F7FF90EF90DF90CF90BF90F8
:1003B000AF909F908F9008950895CF93DF9381E041
:1003C0000E94A400EC01649661E08DE00E94D100DF
:1003D00068EE73E080E090E00E94A401809100014B
:1003E0008C0F8093000160E08DE00E94D10060914D
:1003F00000016C0F62506093000170E06C597F4FF8
:10040000072E000C880B990B0E94A401DF91CF915D
:10041000089561E08DE00E94040108951F920F92FB
:100420000FB60F9211240F931F932F933F934F9367
:100430005F936F937F938F939F93AF93BF9300913D
:100440000201109103012091040130910501909166
:100450000101B901A8014F5F5F4F6F4F7F4F83E0EC
:10046000890F8D3740F086E8890FB901A8014E5FEA
:100470005F4F6F4F7F4F8093010140930201509374
:10048000030160930401709305018091060190912E
:100490000701A0910801B09109010196A11DB11DAC
:1004A0008093060190930701A0930801B09309017E
:1004B000BF91AF919F918F917F916F915F914F917C
:1004C0003F912F911F910F910F900FBE0F901F9092
:1004D00018950E9443010E9409020E94DD0180E0FC
:1004E00090E0892BD1F30E940000F7CFF894FFCF62
:00000001FF
