:020000040000FA
:100000000C94B3000C94C5000C94C5000C94C5006E
:100010000C94C5000C94C5000C94C5000C94C5004C
:100020000C94C5000C94C5000C94C5000C94C5003C
:100030000C94C5000C94C5000C94C5000C94C5002C
:100040000C94C5000C94C5000C948F010C94C50051
:100050000C94C5000C94C5000C94C5000C94C5000C
:100060000C94C5000C94C5000C94C5000C94C500FC
:100070000C94C5000C94C5000C94C5000C94C500EC
:100080000C94C5000C94C5000C94C5000C94C500DC
:100090000C94C5000C94C5000C94C5000C94C500CC
:1000A0000C94C5000C94C5000C94C5000C94C500BC
:1000B0000C94C5000C94C5000C94C5000C94C500AC
:1000C0000C94C5000C94C5000C94C50000002100E0
:1000D000240027002A002D00000020002300260015
:1000E00029002C0000002200250028002B002E00F3
:1000F00002020202020202020404040404040404D0
:1001000003030303030303030101010101010101CF
:1001100005050505050505010204081020408001BC
:1001200002040810204080010204081020408001D1
:100130000204081020408001020408102040000042
:10014000000203000A0B000000000504090800007B
:1001500000000D0000000000000000000000000092
:1001600000000000000011241FBECFEFD8E0DEBF6A
:10017000CDBF21E0A0E0B1E001C01D92AA30B207DE
:10018000E1F70E94D9010C9489020C94000082507E
:100190008D3008F03EC0E82FF0E0EF52FF4F0C9496
:1001A000830206010A01DE00E40009010901E800FA
:1001B000EE00F200F8000901FC00020180918000CD
:1001C0008F77809380000895809180008F7DF9CF94
:1001D0008091B0008F778093B00008958091B00037
:1001E0008F7DF9CF809190008F7780939000089554
:1001F000809190008F7DF9CF8091A0008F778093C0
:10020000A00008958091A0008F7DF9CF84B58F77ED
:1002100084BD089584B58F7DFBCF1F93CF93DF936B
:10022000E5E5F1E09491EEE2F1E0D491E7E0F1E070
:10023000C491CC23B9F0182F992319F0892F0E946B
:10024000C700EC2FF0E0EE0FFF1FEC51FF4FA59120
:10025000B4918FB7F894EC91111108C0D095DE23BA
:10026000DC938FBFDF91CF911F910895DE2BF8CFE4
:100270003FB7F8948091060190910701A091080181
:10028000B091090126B5A89B05C02F3F19F0019632
:10029000A11DB11D3FBFBA2FA92F982F8827BC01E0
:1002A000CD01620F711D811D911D42E0660F771F08
:1002B000881F991F4A95D1F708958F929F92AF9208
:1002C000BF92CF92DF92EF92FF924B015C010E94AE
:1002D00038016B017C010E9438016C197D098E097F
:1002E0009F09683E734081059105A8F321E0821AB9
:1002F0009108A108B10888EEC80E83E0D81EE11C61
:10030000F11C81149104A104B10429F7FF90EF902E
:10031000DF90CF90BF90AF909F908F9008951F92E5
:100320000F920FB60F9211242F933F938F939F93A9
:10033000AF93BF938091020190910301A0910401BA
:10034000B09105013091010123E0230F2D3768F1B1
:1003500026E8230F0296A11DB11D20930101809371
:10036000020190930301A0930401B09305018091D1
:10037000060190910701A0910801B0910901019631
:10038000A11DB11D8093060190930701A093080160
:10039000B0930901BF91AF919F918F913F912F91A0
:1003A0000F900FBE0F901F9018950196A11DB11DC3
:1003B000D4CF789484B5836084BD85B5836085BDD2
:1003C00080916E00816080936E0082E08093810056
:1003D00080918100816080938100809180008160A4
:1003E000809380008091B10084608093B1008091FF
:1003F000B00081608093B000809191008360809311
:100400009100809190008160809390008091A10084
:1004100083608093A1008091A00081608093A00000
:1004200087E880937A001092C100EEE2F1E0249117
:10043000E7E0F1E08491882399F090E0880F991F1C
:10044000FC01E453FF4FA591B491FC01EC51FF4F27
:10045000859194918FB7F894EC91E22BEC938FBF38
:10046000CFE3D1E008E111E091EFE92E90E0F92E21
:1004700020E0C22E20E0D22EFE018491F801A4904B
:10048000F701B490BB2009F43BC081110E94C70062
:10049000EB2DF0E0EE0FFF1FE852FF4FA591B49156
:1004A0008C91A82291E080E009F490E0A92EB82E6A
:1004B00081E00E940D0168EE73E080E090E00E9410
:1004C0005D019090000180E00E940D01F4E1AF0E0B
:1004D000B11CAA0C61E0690DA60EA09200016A2D64
:1004E00070E06C597F4F072E000C880B990B0E940F
:1004F0005D01C114D10409F4BFCF0E940000BCCF3C
:10050000B12CA12CD5CFEE0FFF1F0590F491E02D5B
:060510000994F894FFCFEE
:107E8000112424B614BE80E079D021FEEFC08EE02C
:107E900075D0E0ECF0E0AFE7BFEF4899FECF9096E9
:107EA000489BFDCFB4831197F1F7B2E0B083B8E1FE
:107EB000B18352D0C82F823569F466D0E0E0FEE786
:107EC000A89583E093D091D0E058F109C8F781E7F5
:107ED0003CD0EFCF8D7FD9F44CD0D82FA0E0B1E0CB
:107EE0003BD08D93DA13FCCFA0E0B1E04DD0C111AF
:107EF0000CC0F2BDE1BD8D9180BDFA9AF99A319620
:107F0000F999FECFD150A9F7E2CF48D0E0CFC330E6
:107F100041F42FD0C82F38D0859117D0C150E1F748
:107F2000D6CFC13061F425D0C82F2ED0F2BDE1BD2F
:107F3000F89A80B50AD03196C150C1F7C8CFC13583
:107F400011F488E01BD020D0C2CF9091C00095FFE3
:107F5000FCCF8093C6000895289A209A8091C00093
:107F600087FFFCCF84FD13C0A8958091C600289898
:107F70000895F2DFE82FF0DFF82FEECF98E190932D
:107F80006000809360000895E7DF803219F088E098
:107F9000F5DFFFCF80EAD9CFFB01DC01E07870E8A4
:107FA0007A0F9F01E0388EE7F80728F5309629F41C
:107FB0008FE38D938FEC8C93119790E045915D91B9
:107FC00045139160A713FACFF901A058B10990FFAA
:107FD00012C083E00BD081E00D901D9007D0329647
:107FE000A713FACFF90185E001D081E187BFE895B9
:107FF00017B610FCFDCF11240895031BCDCFE74029
:00000001FF
