:100000000C9466000C9483000C9483000C94830081
:100010000C9483000C9483000C9483000C94830054
:100020000C9483000C9483000C9483000C94830044
:100030000C9483000C9483000C9483000C94830034
:100040000C9453020C9483000C9483000C94830052
:100050000C9483000C9483000C9483000C94830014
:100060000C9483000C9483000000000024002700FF
:100070002A0000000000250028002B0000000000DE
:1000800023002600290004040404040404040202DA
:100090000202020203030303030302020301020438
:1000A00008102040800102040810200102040810FA
:1000B0002040804000000009000302000004050801
:1000C00000000000000000000000000011241FBE1E
:1000D000CFEFD8E0DEBFCDBF11E0A0E0B1E0E6EAAF
:1000E000F5E002C005900D92A030B107D9F721E0EC
:1000F000A0E0B1E001C01D92AA30B207E1F70E9472
:10010000C4020C94D1020C94000008958430B1F024
:1001100060F08830C9F08930E9F0853069F4E0E8B2
:10012000F0E080818F7D808308958230C9F0833034
:1001300021F484B58F7D84BD08950895E0E8F0E052
:1001400080818F7780830895E0EBF0E080818F7766
:1001500080830895E0EBF0E080818F7D80830895B7
:1001600084B58F7784BD0895CF93DF93282F30E037
:10017000F901EC54FF4F8491F901E356FF4FD491FC
:10018000F901EA57FF4FC491CC23B1F081110EC0A1
:10019000EC2FF0E0EE0FFF1FE458FF4FA591B49154
:1001A000EC91ED2331F490E080E008C00E948600DD
:1001B000EFCF81E090E002C090E080E0DF91CF914E
:1001C00008951F93CF93DF93282F30E0F901EC546B
:1001D000FF4F8491F901E356FF4F1491F901EA575B
:1001E000FF4FC491CC23A9F0D62F811116C0EC2F5C
:1001F000F0E0EE0FFF1FEE58FF4FA591B4918FB7BF
:10020000F894D1110DC09C91E12FE095E923EC9376
:100210008FBFDF91CF911F9108950E948600E7CF95
:10022000EC91E12BEC93F4CFCF93DF9390E0FC01C2
:10023000E356FF4F24918A579F4FFC0184918823F6
:1002400019F190E0880F991FFC01E859FF4FA59123
:10025000B491FC01EE58FF4FC591D491662349F04B
:100260006230A9F08FB7F894EC91E22BEC938FBF3A
:100270000BC09FB7F8948C91E22FE0958E238C935E
:100280008881E823E8839FBFDF91CF9108959FB7CE
:10029000F8943C91822F809583238C93E881E22B04
:1002A000E8839FBFF1CF3FB7F8948091060190910A
:1002B0000701A0910801B091090126B5A89B05C0CE
:1002C0002F3F19F00196A11DB11D3FBFBA2FA92FD5
:1002D000982F8827BC01CD01620F711D811D911DD2
:1002E00042E0660F771F881F991F4A95D1F708953E
:1002F0008F929F92AF92BF92CF92DF92EF92FF9236
:100300006B017C010E9453014B015C01C114D104BB
:10031000E104F104B9F00E945301681979098A09CE
:100320009B09683E73408105910580F321E0C21A64
:10033000D108E108F10888EE880E83E0981EA11C20
:10034000B11CE4CFFF90EF90DF90CF90BF90AF90C3
:100350009F908F9008950895CF93DF9381E00E943E
:10036000B400EC01649661E08DE00E94E10068EE6B
:1003700073E080E090E00E947801809100018C0F92
:100380008093000160E08DE00E94E1006091000137
:100390006C0F62506093000170E06C597F4F072E24
:1003A000000C880B990B0E947801DF91CF91089582
:1003B00061E08DE00E9414010895CF93DF93CDB7E3
:1003C000DEB7789484E490E0FC01208184E490E03E
:1003D0002360FC01208385E490E0FC01208185E41A
:1003E00090E02360FC0120838EE690E0FC012081F8
:1003F0008EE690E02160FC01208381E890E022E01D
:10040000FC01208381E890E0FC01208181E890E0FC
:100410002160FC01208380E890E0FC01208180E8DD
:1004200090E02160FC01208381EB90E0FC012081C1
:1004300081EB90E02460FC01208380EB90E0FC01E4
:10044000208180EB90E02160FC0120838AE790E02E
:1004500027E8FC01208381EC90E0FC011082DF9111
:10046000CF910895CF93DF9300D0CDB7DEB79A83B5
:10047000898389819A81029788F089819A81880F7E
:10048000991F880F991F9A83898389819A8105977B
:100490009A83898389819A810197F1F70F900F9050
:1004A000DF91CF9108951F920F920FB60F921124F2
:1004B0008F939F93AF93BF93CF93DF93CDB7DEB767
:1004C0002597DEBFCDBF8091020190910301A091DD
:1004D0000401B091050189839A83AB83BC83809129
:1004E00001018D838D818D5F8D838D818D3778F0B6
:1004F0008D818D578D8389819A81AB81BC810296D4
:10050000A11DB11D89839A83AB83BC830BC08981F4
:100510009A81AB81BC810196A11DB11D89839A830B
:10052000AB83BC838D818093010189819A81AB81EA
:10053000BC818093020190930301A0930401B093C6
:1005400005018091060190910701A0910801B091E9
:1005500009010196A11DB11D809306019093070129
:10056000A0930801B09309010F900F900F900F9086
:100570000F90DF91CF91BF91AF919F918F910F908D
:100580000FBE0F901F9018950E94DD010E94D801A8
:100590000E94AC0180E090E0892BD1F30E94000022
:0605A000F7CFF894FFCF35
:00000001FF
